:020000041007E3
:10900000DFF85CD072B601F0EFF81648164901603F
:109010001649174A174B9A423EBF51F8040B42F8C3
:10902000040BF8E71449154A154B9A423EBF51F814
:10903000040B42F8040BF8E7124A134B9A423EBF66
:10904000002042F8040BF9E7104A114B9A423EBF48
:10905000002042F8040BF9E70E4880470E4800470D
:1090600000FC03203000088300220000B0B107108C
:109070000000002000030020B0B407100000100022
:10908000C8011000C8011000C80110000003002032
:1090900090080020C5A107106DA10710FEE7000091
:1090A0000002044B0022C25008334FF40042C25069
:1090B000704700BF18000183304B31494FF4006204
:1090C0001A60304A11604FF480521A602E4A01F53E
:1090D000A01111604FF400521A602C4A2C49116003
:1090E0004FF480421A602B4A01F5A61111604FF42B
:1090F00000421A60284A01F5342111604FF4803291
:109100001A60264A01F5A61111604FF400321A6068
:10911000234A01F5342111604FF480221A60214A5C
:1091200001F5A61111604FF400221A601E4A01F5E4
:10913000FE1111604FF480121A6011441B4A116035
:109140004FF400121A601A4A01F5801111604FF4B1
:1091500080021A60174A01F5801111604FF4000275
:109160001A60154A01F5801111604FF080721A6083
:1091700003F58C33FC33114A1A60704718000083E2
:1091800012066000140C0183140D0183140E018378
:1091900010008000140F0183141001831411018347
:1091A0001412018314130183141401831415018311
:1091B00014160183141701831418018312C044018B
:1091C00010B51202064C1051064811500649535072
:1091D0003039029B53504031039B535010BD00BFA8
:1091E0002C00018344000183400001830002034BF3
:1091F000C25842F40042C250704700BF14000183BD
:109200000002034BC25822F40042C250704700BF14
:109210001400018310B504462402FFF741FF024BFE
:109220004FF40042E25010BD180001830C38024B8D
:1092300043F82010704700BF240200200C38024B76
:1092400043F82010704700BFC001002001230138FF
:1092500003FA00F0014B1860704700BF180000834C
:1092600010B5114B1A68002301219940114202D018
:109270000E491A20585401330B2BF5D10024013428
:10928000E4B22046FFF7E2FF0B2CF8D10849012099
:1092900000F0C2FC0120052100F0AEFC0120BDE879
:1092A000104000F081BC00BF5C02002004030020DD
:1092B000C99207100123013803FA00F0014B18602E
:1092C000704700BF14000083F8B5012000F080FC57
:1092D000584D00242B6813F4004F04F1010614D0FC
:1092E000F7B23846FFF7DCFE4FF400436B60012213
:1092F00063009A40504B1B681A42FBD13846FFF777
:10930000D9FF4E4B53F8243098470B2E344605F5C1
:109310008075DFD14A4C2368A26811043BD51B0D30
:10932000063B0E2B34D8DFE803F0080B0E111417A0
:109330001A1D33202326292C2F00424B1B6825E0C1
:10934000404B5B6822E03F4B9B681FE03D4BDB6876
:109350001CE03C4B1B6919E03A4B5B6916E0394B4A
:109360009B6913E0374BDB6910E0364B1B6A0DE05D
:10937000344B5B6A0AE0334B9B6A07E0314BDB6A94
:1093800004E0304B1B6B01E02E4B5B6B03B1984745
:109390004FF40043E3602C4D04F58074AC42BAD125
:1093A000274C2368A268D2033BD51B0D063B0E2B2E
:1093B00034D8DFE803F0080B0E1114171A1D332000
:1093C0002326292C2F00214B1B6825E01F4B5B68AF
:1093D00022E01E4B9B681FE01C4BDB681CE01B4B14
:1093E0001B6919E0194B5B6916E0184B9B6913E088
:1093F000164BDB6910E0154B1B6A0DE0134B5B6AE3
:109400000AE0124B9B6A07E0104BDB6A04E00F4B4B
:109410001B6B01E00D4B5B6B03B198474FF480333E
:10942000E36004F58074AC42BBD10120BDE8F84094
:1094300000F0BABB1C01018300000183F801002089
:10944000140C018324020020141A0183C00100209F
:1094500000F01F03C0F34F1010B510B101284CD01D
:1094600077E0012924D11A2B05D83B4A146899408A
:1094700024EA010116E01B2B01D1384A0BE01C2B1A
:1094800001D1374A07E01D2B01D1364A03E01E2BDC
:109490000CBF354A354A116821F00201116011688C
:1094A00041F400611160012202FA03F3304A22E024
:1094B0001A2B06D8284A01211468994021431160CB
:1094C00015E01B2B01D125490BE01C2B01D12449B0
:1094D00007E01D2B01D1234903E01E2B0CBF2249BD
:1094E00022490A6842F4006242F002020A60012244
:1094F00002FA03F31F4A136010BD012914D12BB1E6
:109500001D4A1068994020EA010107E01B4A1168D2
:1095100021F002011160116841F400611160012223
:1095200002FA03F3164A11E02BB1134A116898406E
:109530000843106006E011490A6842F4006242F0F4
:1095400002020A60012202FA03F30E4A13600020AD
:1095500010BD4FF0FF3010BD00B1008348300281D4
:109560004C3002815C3002815830028154300281DB
:1095700094B0008398B0008304B10083503002811E
:10958000A4B00083A8B000833C2800F2C280DFE8CA
:1095900000F01F21232527292B2DC0C0C0C0C0C02B
:1095A000C0C0C0C0C0C0C0C0C0C02F3537394753CD
:1095B0005E6B7987898B8D8F969DC0C0C0C0C0C0FF
:1095C000C0C0C0C0C0C0C0C0C0C0C0A4ABB2B900A1
:1095D000504B0EE04F4B81E04E4B86E04D4B8BE005
:1095E0004C4B90E04B4B64E04A4B69E0494B6EE0DA
:1095F000494B1A6822F00F02114389E0464B6DE097
:10960000454B72E0444B1A6822F4704242EA013240
:1096100002291A6002D0043901297AD81B203CE0C3
:109620003D4B1A6822F4702242EA014204390129B2
:109630001A606ED81C2030E0374B1A6822F4700292
:1096400042EA015206291A6063D11D2025E0324BFF
:109650001A6822F0706242EA016204291A6001D09D
:10966000072956D11E2018E02B4B1A6822F07042B1
:1096700042EA017201F0FD0104291A6008BF1F20AF
:1096800047D10AE0254B1A6822F00F020A4301F085
:10969000FD0104291A603CD120200021FFF7D8BE2B
:1096A0001E4B1BE01D4B20E01C4B25E01B4B2AE012
:1096B0001A4B1A6822F4700242EA015128E0174B53
:1096C0001A6822F0706242EA016121E0134B1A68C5
:1096D00022F0704242EA01711AE0114B1A6822F03E
:1096E000F00242EA011113E00D4B1A6822F4706295
:1096F00042EA01210CE00A4B1A6822F4704242EA65
:10970000013105E0064B1A6822F4702242EA014159
:1097100019607047203002812C3002813030028184
:109720003C30028108B53C285CD8DFE800F01F55CA
:1097300021232527292B5B5B5B5B5B5B5B5B5B5BB7
:109740005B5B5B5B5B5B2D2F31333537393B3D3FDB
:1097500041434547494B5B5B5B5B5B5B5B5B5B5BD7
:109760005B5B5B5B5B5B5B4D4F515300002034E008
:10977000022032E0032030E004202EE005202CE01F
:1097800006202AE0072028E0182026E0192024E0FF
:109790001A2022E01B2020E01C201EE01D201CE0DF
:1097A0001E201AE01F2018E0202016E0212014E0DF
:1097B000222012E0232010E024200EE025200CE0DF
:1097C00026200AE0272008E0392006E03A2004E0BD
:1097D0003B2002E03C2000E00120C9B2FFF7D4FEAC
:1097E000002008BD4FF0FF3008BD000010B51C4B35
:1097F0001C4A19681368C1F3423123F4FF6301392D
:10980000104623F00703184A062905D8DFE801F0BF
:1098100013090E13131313001449116043F01003BE
:109820000DE01349116043F0400308E01149116055
:1098300043F4806303E01049116043F40073036054
:109840000E4B12681A6000F0B5FC0D4B18684FF40F
:109850007A73B0FBF3F0BDE8104000F097BC00BF96
:10986000C0810083B881008314030020002D3101E2
:1098700080BA8C0100751903005A6202100300209F
:1098800060020020014B1868704700BF14030020DD
:10989000014B1868704700BF100300202DE9F04FFE
:1098A0003F4C8DB0914680460F469A466D4604F176
:1098B0001002206861682B4603C3083494421D4699
:1098C000F7D120681860A388364CAB8006AD04F150
:1098D0001003206861682E4603C608349C42354652
:1098E000F7D1A3882068B3803060FFF7CBFF2E4B01
:1098F0002E4A18602E48B8F1010F18BF10460322F7
:109900004262C66846F08001C160D3F800B00A2305
:10991000BBFBF7F52C0A03FB0BFB0134BBFBF7F792
:10992000B5FBF4F8B7FBF5F503FB185508F1FF316B
:10993000B5FBF3F7032903FB1753E5B2C4F3072480
:10994000056018BF4FEA510C446081620CA901EB1D
:10995000430300F10C0233F8181C33F8303C14BFF9
:109960000CF1FF3C4FF0000CC0F82CC08165436542
:109970004723166083601188BDF8583021F0030139
:109980000904090C41EA090121F00401194321F0FD
:10999000380141EA0A0AA2F800A00DB0BDE8F08F34
:1099A00010B0071026B00710180300200000038332
:1099B0000000048313B50023044600934FF4E13103
:1099C0000322FFF76BFF0CB9054B02E0012C04D119
:1099D000044B1A6842F001021A6002B010BD00BFC9
:1099E0004C0003834C00048340B909B10B4B07E0E2
:1099F0000B4B0C491B889BB2136009E019B10A4B51
:109A00001B889BB207E0094B09491B889BB2136076
:109A1000098889B25B1A1360704700BF380F018351
:109A2000440E0183380E01833811018344100183F1
:109A30003810018310B50023934209D008B9054CB2
:109A400002E0012802D1044C2478CC540133F3E71E
:109A500010BD00BF000300790005007930B5002378
:109A600093420AD010B9CD5C044C03E0012802D126
:109A7000CD5C034C25700133F2E730BD0002007964
:109A80000004007913B50C4611461A46034638B94E
:109A90008DE80C0020460E22FFF792FB0E2009E015
:109AA00001280CD100230092204601931022FFF7D9
:109AB00087FB102002B0BDE81040FFF7ABBB02B03F
:109AC00010BD37B5069D0C461146079A38B901926C
:109AD000204600950F22FFF773FB0F2008E00128B6
:109AE0000BD10192204600951122FFF769FB11204E
:109AF00003B0BDE83040FFF78DBB03B030BD08B9FF
:109B00000F2002E0012802D11120FFF78FBB704720
:109B100008B90F2002E0012802D11120FFF78EBB07
:109B200070470000134B144A002814BF1046184613
:109B3000BF221023C2608021836000230361836100
:109B4000C16003604360C36043608360C260836040
:109B5000C3600361C36143628362C3624363C363DF
:109B6000036443648364C364036543658365036678
:109B7000704700BF00000383000004830CB437B5B6
:109B800006AC01A854F8045B00F06CF821462846A6
:109B9000009400F03DFE019800F06BF803B0BDE8C2
:109BA000304002B070470000C3B25F2B0AD80122D8
:109BB00003F01F03400902FA03F3044A42F820307D
:109BC000002000E0FD2040B2704700BF00E100E04F
:109BD000C3B25F2B0BD80122400903F01F0302FA26
:109BE00003F32030034A42F82030002000E0FD203B
:109BF00040B2704700E100E0C3B25F2B09D800F12A
:109C0000604000F561404901C9B280F800130020AE
:109C100000E0FD2040B2704770B5C6B25F2E04462A
:109C20000D4617D8B1B101F0E3F906F01F0662093D
:109C3000012303FA06F66032084B43F82260084B12
:109C400043F8345003EBC4040025656001F0D8F9F3
:109C5000284600E0FE2040B270BD00BF00E100E0F9
:109C60001C03002010B5044601F0C2F9206000205A
:109C700010BD08B501F0C4F9002008BD3C2808B5A6
:109C800008D80F2908D8FFF74DFD0028B4BFFD20E4
:109C9000002002E0FE2000E0FF2040B208BD0020CE
:109CA0007047012811D871B10B780C2B0DD8CB78E7
:109CB000022B0AD88B78012B07D8487803288CBF51
:109CC00000200120704708467047002070470000C0
:109CD000124B37B5302404FB00340546143461B10F
:109CE00001AA0121FFF780FE6269019B934213D311
:109CF000002D14BF11200F200CE001AAFFF774FE05
:109D0000A3686268D21A019B934205D3002D14BF49
:109D100010200E20FFF774FA03B030BD1C0600209F
:109D200008B5074B93F8352022B19A6B12B1022087
:109D3000D96B904701200021BDE80840FFF7C8BF5C
:109D40001C06002008B5074B5A7922B19A6812B157
:109D50000220D968904700200146BDE80840FFF77F
:109D6000B7BF00BF1C060020012873B505460E468C
:109D700014461ED8F9B112B3124B302202FB003345
:109D80001B7CD3B1002101AAFFF72EFE019884426B
:109D900028BF0446314628462246FFF75FFE019B56
:109DA0009C420CD1002D14BF10200E20FFF71EFA8C
:109DB00005E0002004E0084602E0184600E02046E6
:109DC00002B070BD1C060020012873B506460D4682
:109DD000144618D8C9B1D2B1012101AAFFF704FE77
:109DE0000198844228BF0446294630462246FFF7A0
:109DF00021FE019B9C420AD1002E14BF11200F208E
:109E0000FFF7F4F903E0002002E0084600E02046F6
:109E100002B070BD07B500230128019305D80121C8
:109E200001AAFFF7E1FD019800E0184603B05DF8D4
:109E300004FB000010B5094C94F8353043B1012003
:109E4000FFF7E8FF20B1A36B13B10120E16B984746
:109E500001200146BDE81040FFF73ABF1C06002074
:109E600010B5094C637943B10020FFF7D3FF20B14F
:109E7000A36813B10120E168984700200121BDE8E3
:109E80001040FFF725BF00BF1C060020012838B591
:109E9000044622D809B3124B302505FB0033DA60A3
:109EA000012299605A710F4B53F820502946FFF751
:109EB00026FE20462946FFF72BFE2CB90E200A4924
:109EC000FFF7B4F90E2004E010200849FFF7AEF9BF
:109ED0001020FFF78BF9002000E0FC2040B238BDD5
:109EE0001C060020ACB00710459D0710219D0710EF
:109EF0002DE9F04190B080460E46FFF7D2FE0028D3
:109F000049D0274B274C302000FB08303146042233
:109F1000013000F0B9F90FCC03AD0FC50FCC0FC560
:109F20000FCC377896F803C00FC5224610A800EB77
:109F3000870752F8040F236851682B60757857F82B
:109F400034EC03AB03C310A901EB450503AF35F8AF
:109F5000342C254655F80C0F696803C729891980E8
:109F600010A800EB4C0354F8160F33F8343CB178CA
:109F70000390A088ADF8100010A800EB410118F183
:109F8000000031F8341C009118BF01207146FFF722
:109F900085FC002000E0FC2040B210B0BDE8F0815C
:109FA0001C06002060B007102DE9F04104460F4662
:109FB000FFF777FE08B9FC2022E03022124E02FBA8
:109FC00004F506EB0508715DC9B9404600F065F976
:109FD0003946042208F1010000F056F901237355B7
:109FE000251C18BF01252846FFF79CFD2846FFF7D2
:109FF000E1FC20463946FFF77BFF08B1DBE7FD2097
:10A0000040B2BDE8F08100BF1C06002001282DE908
:10A01000F74305460C460FD871B1CB6863B10B69A5
:10A020004A69934208D38A69934205D30B681BB1EE
:10A030004A688B689A4204D2FC2040B203B0BDE863
:10A04000F083164830236B43C2180126167402F1C0
:10A0500014001C2200F018F9FFF702F9FFF72CF8A2
:10A06000D4F80C802769A669D4F81490FFF710FC87
:10A070004FF47A73B0FBF3F000EB8000019041469F
:10A0800028463A463346CDF80090FFF71AFD284699
:10A0900094E80E00FFF7F6FC0020CEE71C06002037
:10A0A000012804BF014B1870704700BF7C070020D7
:10A0B00030B50220C9B0FFF7F2FD0320FFF7EFFD36
:10A0C00007210220FFF7DAFD07210320FFF7D6FD65
:10A0D000002409238DF800306946032320468DF8BB
:10A0E00001308DF803408DF80240FFF75DFF1E231D
:10A0F0000793184B049396224FF4807305930692AE
:10A100000293154A0192322301A920460393FFF7D7
:10A110007DFF124922462046FFF7B8FE204610492F
:10A120004122FFF721FE0F4C2378002BFBD00020AB
:10A13000FFF770FE054608A92A460020FFF744FEF7
:10A1400008A92A460020FFF70FFE0023237049B01C
:10A1500030BD00BF7C06002080070020A1A00710B2
:10A16000B4B007107C0700207047000008B5FFF767
:10A170003DFB62B661B6FFF79BFF002002491F223C
:10A18000FFF7F2FDFEE700BFF5B007100138B0F1B0
:10A19000807F0AD2064B1A68196821F00301196002
:10A1A0005860002098601A6070470120704700BF17
:10A1B00010E000E008B5FFF76BFB014B186008BD2D
:10A1C00060020020074BD3F8882042F47002C3F8E5
:10A1D00088204FF000529A605A6A42F4E0225A6294
:10A1E000704700BF00ED00E0094B0A4900221A60E9
:10A1F00013225A6003225A604FF0AA721160064976
:10A2000011640122DA6240F20D321A60704700BF19
:10A2100000005301009107100080131000207047C8
:10A2200000207047012070470020704700207047D1
:10A2300070B50E4615460024AC4204DA305DFFF7D7
:10A2400093FF0134F8E7284670BD0000EFF3088261
:10A25000064B186808B906481860186801448A4215
:10A260002ABF024B4FF0FF30196070478008002072
:10A2700090080020FEE7FEE7FEE7FEE7FEE7FEE7C8
:10A28000FEE7FEE7FEE7FEE710B50023934203D0AA
:10A29000CC5CC4540133F9E710BD02440346934239
:10A2A00002D003F8011BFAE770479368013B002BCB
:10A2B00010B5936005DA9469A34208DBCBB20A2B90
:10A2C00005D01368581C10601970C8B210BDBDE8E5
:10A2D000104000F0B3BAF8B505460E461446D7183C
:10A2E000BC4208D0284614F8011B3246FFF7DDFFB8
:10A2F000431CF5D100E00020F8BD00002DE9F0433B
:10A300009DB00D4617460393064618B183690BB9F5
:10A3100000F058FC734B9D4201D1756808E0724B08
:10A320009D4201D1B56803E0704B9D4208BFF568BE
:10A33000AB8918070AD52B6943B100230993202361
:10A340008DF8293030238DF82A3038E03046294600
:10A3500000F0C8FA0028F0D04FF0FF30BFE0039AB9
:10A36000111D12680391002A70DB079201342378D3
:10A370002E2B7DD05E4F21783846032200F0DAFC88
:10A3800030B1C71B049B4020B84003430493013401
:10A39000217858488DF828100622671C00F0CAFC66
:10A3A000002800F08A80544B002B7DD1039B07339B
:10A3B00023F0070308330393099B434409933B4667
:10A3C0001C4613F8012B1AB9B4EB07090ED002E0B2
:10A3D000252AF5D1F8E7304629463A464B46FFF79D
:10A3E0007AFF013076D0099B4B4409932378002BE8
:10A3F00070D000234FF0FF32049307930592069329
:10A400008DF853301A9304F101094C463B4F2178E3
:10A410003846052200F08EFC09F10109049B28B1A1
:10A42000C71B0120B84003430493EEE7D90644BF9D
:10A4300020228DF853201A0744BF2B228DF8532079
:10A4400022782A2A8BD0079B214605E0524243F00E
:10A4500002030792049389E70C4601312278303ACF
:10A46000092A03D80A2000FB0323F5E707937EE7B8
:10A4700063782A2B0AD1039B1A1D1B680392002BB9
:10A4800004F10204B8BF4FF0FF330BE0611C00235E
:10A490000C4601312278303A092A03D80A2000FB01
:10A4A0000323F5E7059365E703AB0093304604A962
:10A4B0002A46134BAFF3008007E003AB009330460E
:10A4C00004A92A460E4B00F08FF8B0F1FF3F8046FA
:10A4D0007FF472AFAB895B063FF53EAF09981DB0C4
:10A4E000BDE8F08350B1071070B1071090B10710AC
:10A4F00022B1071026B10710000000001CB10710A0
:10A50000D7A207102DE9F84315461F468A680B6944
:10A51000DDF820809A42A8BF13462B6091F84320B3
:10A5200006460C460AB101332B602368990602D512
:10A530002B6802332B60236813F006091DD094F8B2
:10A5400043302268003318BF012392061FD5E1185B
:10A550005A1C302081F84300224494F8451082F8B8
:10A560004310023313E03046394604F11902012347
:10A57000C047013007D009F10109E2682B68D31AFE
:10A580009945F0DBDBE74FF0FF30BDE8F88330465C
:10A59000394604F14302C0470130F4D023682A68E9
:10A5A000E16803F00603042B08BFC2EB0105236931
:10A5B000A2680CBF25EAE57500259A42C4BFC3EB2B
:10A5C0000203ED184FF00009A9450ADA3046394672
:10A5D00004F11A020123C0470130D4D009F1010966
:10A5E000F2E70020BDE8F8832DE9FF470E7E0C9DC1
:10A5F0006E2E80460C4691469A4601F1430000F0CB
:10A60000A58011D8632E22D009D8002E00F0AF808B
:10A61000582E40F0BF8081F845607B4A4FE0642EA1
:10A620001ED0692E1CD0B5E0732E00F0A48009D88E
:10A630006F2E2BD0702E40F0AD800B6843F02003BE
:10A640000B6038E0752E21D0782E34D0A2E02B6834
:10A650001A1D1B682A6001F1420781F842309DE013
:10A6600022682B6812F0800F03D01A1D2A601D6823
:10A6700005E05106F9D51A1D2A60B3F90050002DE6
:10A6800039DA2D236D4284F8433034E022682B6898
:10A6900012F0800F03D01A1D2A601D6804E05206D4
:10A6A000F9D51A1D2A601D88237E574A6F2B14BFC7
:10A6B0000A2308231BE07823544A84F84530236892
:10A6C000296813F0800F01F104062E6001D00D6897
:10A6D00002E05F06FBD50D88DE0744BF43F0200390
:10A6E00023601DB9236823F0200323601023002179
:10A6F00084F8431001E0444A0A236668A660002EED
:10A7000003DB216821F00401216005B96EB104F179
:10A710004201B5FBF3F603FB16550F46555D01F8F4
:10A7200001593546002EF4D100E00746082B0AD126
:10A730002368DD0707D5626823699A4203DC30236A
:10A7400007F8013C013FC01B20612CE009682B6821
:10A75000626911F0800F04D0191D29601B681A600E
:10A7600005E04906F8D5191D29601B681A800023E9
:10A770002361074617E02B681A1D2A601F683846B8
:10A7800000F0C3FB63682061984288BF236123699E
:10A79000636005E004F1420784F84260012323610D
:10A7A000002384F84330CDF800A04046214603AA98
:10A7B0004B46FFF7A7FE013002D14FF0FF301FE0FC
:10A7C000404649463A462369D0470130F5D02368D0
:10A7D0009B0705D4E068039B9842B8BF18460FE07A
:10A7E0000025E268039BD31A9D42F3DA40464946AE
:10A7F00004F119020123D0470130DED00135F0E722
:10A8000004B0BDE8F08700BF2DB107103EB10710BE
:10A81000094B2DE9F0411C6807460E4624B1A56995
:10A8200015B9204600F0CEF92046A1683A463346D5
:10A83000BDE8F041FFF762BDFC02002070B50E4696
:10A840001446054618B183690BB900F0BBF9224BD9
:10A850009C4201D16C6808E0204B9C4201D1AC685D
:10A8600003E01F4B9C4208BFEC68A369A360A38967
:10A870001A0709D523693BB123692068C01A6369A7
:10A880009842F6B20FDB08E02846214600F02AF88D
:10A890000028F1D04FF0FF3070BD2846214600F06F
:10A8A00013F90028F6D1A368013BA36023685A1C62
:10A8B00022601E7063690130984204D0A389DB07CF
:10A8C00007D50A2E05D12846214600F0FDF80028BC
:10A8D000E0D1304670BD00BF50B1071070B1071015
:10A8E00090B10710324B70B51D6806460C4625B175
:10A8F000AB6913B9284600F065F92E4B9C4201D193
:10A900006C6808E02C4B9C4201D1AC6803E02B4BF7
:10A910009C4208BFEC68A28993B2190720D4DD06D7
:10A9200005D4092342F040023360A2813BE058077E
:10A9300012D5616B41B104F14403994202D0304613
:10A9400000F008FA00236363A38923F02403A381A2
:10A950000023636023692360A38943F00803A38174
:10A9600023694BB9A38903F42073B3F5007F03D0A7
:10A970003046214600F090F9A38913F0010205D07A
:10A980000022A26062695242A26103E0990758BFA7
:10A990006269A26022694AB903F0800080B230B1D6
:10A9A00043F04003A3814FF0FF3070BD002070BD25
:10A9B000FC02002050B1071070B1071090B10710D1
:10A9C0008A892DE9F041054610070C4657D44B689B
:10A9D000002B02DC0B6C002B18DDE66AB6B102F42A
:10A9E0008052002392B22F682B600AB1626D10E092
:10A9F000216A28460123B047411C024609D12B6831
:10AA00003BB11D2B01D0162B46D12F600020BDE895
:10AA1000F081A3895B0705D56368D21A636B0BB11C
:10AA2000236CD21AE66A216A28460023B047461CE6
:10AA3000A28905D12B681BB11D2B01D0162B19D172
:10AA400000236360D1042369236004D5421C01D133
:10AA50002B6803B96065616B2F600029D6D004F1C3
:10AA60004403994202D0284600F074F90020606344
:10AA7000BDE8F08142F04002A281BDE8F0810E699C
:10AA8000002EC3D00B680E60C6EB030893070CBF03
:10AA90004B6900238B6012E0A38943F04003A3813C
:10AAA0004FF0FF30BDE8F081A76A216A28463246A0
:10AAB0004346B8470028EFDD0644C0EB0808B8F16C
:10AAC000000FF1DCA2E7000038B50B6905460C4623
:10AAD000DBB118B183690BB900F074F80C4B9C42E0
:10AAE00001D16C6808E00B4B9C4201D1AC6803E0DB
:10AAF000094B9C4208BFEC68B4F90C302BB12846D6
:10AB00002146BDE83840FFF75BBF002038BD00BFDD
:10AB100050B1071070B1071090B10710F8B5074693
:10AB200000F1480494B1A5686668013E0CD4AB8975
:10AB3000012B07D9B5F90E30013303D03846294629
:10AB4000FFF7C2FF6835F0E72468EBE7F8BD0000C7
:10AB5000002310B50446036043608360818143662F
:10AB6000C28103614361836119465C300822FFF7AB
:10AB700094FB054B6362054BA362054BE362054BF7
:10AB80002462236310BD00BF85AE0710A7AE071077
:10AB9000DFAE071003AF071070B54B1E68255D438D
:10ABA0000E4605F1740100F019F9044640B1002188
:10ABB00080E842000C30A06005F16802FFF76DFBF1
:10ABC000204670BD836910B5044633BB8364C364FB
:10ABD0000365124B124A1B688262984204BF01232C
:10ABE000836100F01FF86060204600F01BF8A06051
:10ABF000204600F017F80421E06000226068FFF7AB
:10AC0000A7FFA06809210122FFF7A2FFE068122137
:10AC10000222FFF79DFF0123A36110BD18B10710A9
:10AC20001DAB0710F8B51B4B1E68B369074613B977
:10AC30003046FFF7C7FF4836B4687368013B04D459
:10AC4000B4F90C5075B16834F8E733682BB938465D
:10AC50000421FFF7A1FF306008B13668ECE70C2350
:10AC60003B60F8BD4FF6FF73E3810123A381656666
:10AC70002560A560656025616561A56104F15C00E2
:10AC800029460822FFF709FB6563A563A564E5640F
:10AC90002046F8BD18B10710F0B58B899E0791B01A
:10ACA00005460C4626D4B1F90E10002909DAA3890D
:10ACB00013F0800F4FF0000714BF40264FF480665A
:10ACC0000DE001AA00F04CF90028F0DB029F07F428
:10ACD0007047B7F500514F424F414FF48066284608
:10ACE000314600F07BF860B9A3899A051DD443F082
:10ACF0000203A38104F147032360236101236361FD
:10AD000013E00B4BAB62A389206043F08003A38167
:10AD1000206166614FB12846B4F90E1000F032F997
:10AD200018B1A38943F00103A38111B0F0BD00BFA6
:10AD30001DAB071010B5C9B202449042034606D0BD
:10AD40001C788C4200F10100F7D1184610BD00209C
:10AD500010BD000030B500293CD051F8042C0B1F69
:10AD60001D49002AB8BF9B180A680C4612B95A60E0
:10AD70000B6030BD93420DD219685818904203D130
:10AD80005A581144426819605A60236030BD994294
:10AD900003D80A4651680029F9D1146815199D4253
:10ADA0000AD11B682344D0188842136012D1086866
:10ADB000034413604B680CE002D90C23036030BDE0
:10ADC00018681C188C4203D10C684968204418602C
:10ADD0005960536030BD00BF8C08002070B5CD1C99
:10ADE00025F0030508350C2D38BF0C25002D06462F
:10ADF0003FDB8D423DD3214B1C6818462146A1B153
:10AE00000B685B1B0ED40B2B03D90B60CC18CD50F9
:10AE10001FE08C4202D1626802601AE04B686360F6
:10AE20000C4616E00C464968E9E7154C23681BB947
:10AE30003046FFF70BFA206029463046FFF706FA46
:10AE4000431C014615D0C41C24F0030484420AD1DB
:10AE5000256004F10B00231D20F00700C31A0BD05E
:10AE60005A42E25070BD3046611AFFF7EFF90130E7
:10AE7000EED10C233360002070BD00BF8C08002091
:10AE80008808002010B50C46B1F90E1000F09CF8AF
:10AE9000002803DB636D0344636510BDA38923F4BD
:10AEA0008053A38110BD2DE9F0411D468B89DB0540
:10AEB00007460C46164605D5B1F90E1000220223AE
:10AEC00000F070F8A389B4F90E1023F48053A38125
:10AED000384632462B46BDE8F04100F01FB810B5A9
:10AEE0000C46B1F90E1000F05DF8431CA38903D1A4
:10AEF00023F48053A38110BD43F48053A381606584
:10AF000010BDB1F90E1000F01BB8034613F8012B69
:10AF1000002AFBD1181A01387047000038B5074CD9
:10AF2000054600202060084611461A46FFF780F9C2
:10AF3000431C02D1236803B12B6038BD00030020FD
:10AF400038B5064C0023054608462360FFF766F92E
:10AF5000431C02D1236803B12B6038BD00030020DD
:10AF600038B5074C00230546084611462360FFF715
:10AF700057F9431C02D1236803B12B6038BD00BFD1
:10AF80000003002038B5064C002305460846236020
:10AF9000FFF748F9431C02D1236803B12B6038BD89
:10AFA0000003002038B5074C054600202060084605
:10AFB00011461A46FFF738F9431C02D1236803B142
:10AFC0002B6038BD0003002038B5074C0546002033
:10AFD0002060084611461A46FFF728F9431C02D1A3
:10AFE000236803B12B6038BD00030020000000007F
:10AFF00001B40248844601BC604700BF0100100054
:10B0000001B40248844601BC604700BF090010003B
:10B0100000001000440092002900AA00B600DB00E6
:10B02000AD00FF00FF000000000000000000010074
:10B030000100010001000100010003006973724377
:10B040005F6D61696E004552524F523A206E6F201B
:10B050004952512068616E646C657221200A0000BB
:10B060006E0000002C010000B00400006009000028
:10B07000C012000080250000004B00000096000078
:10B0800000E1000000C20100008403000008070086
:10B0900000100E0000000100020003000000080084
:10B0A000180000000000000004000400619E07106A
:10B0B000359E07100D0A0D0A506C65617365206995
:10B0C0006E707574206461746120746F2074686997
:10B0D00073205541525420706F727420616E642049
:10B0E00077617463682069742773206F7574707555
:10B0F000743A0D0A006578616D706C652070726F2E
:10B100006A65637420746573742073756363657313
:10B11000732E0A00430000009C020020232D302BD8
:10B120002000686C4C006566674546470030313248
:10B13000333435363738394142434445460030319F
:10B1400032333435363738396162636465660000FE
:10B1500000000000000000000000000000000000EF
:10B1600000000000000000000000000000000000DF
:10B1700000000000000000000000000000000000CF
:10B1800000000000000000000000000000000000BF
:10B1900000000000000000000000000000000000AF
:10B1A000000000000000000000000000000000009F
:10B1B00000FC03200190071075A2071077A207106A
:10B1C00079A207107BA207107DA2071000000000E3
:10B1D0000000000000000000000000007FA2071037
:10B1E00081A207100000000083A2071085A20710AB
:10B1F0006101100061011000610110006101100087
:10B200006101100061011000610110006101100076
:10B210006101100061011000610110006101100066
:10B220006101100061011000610110006101100056
:10B230006101100061011000610110006101100046
:10B240006101100061011000610110006101100036
:10B250006101100061011000610110006101100026
:10B260006101100061011000610110006101100016
:10B270006101100061011000610110006101100006
:10B2800061011000610110006101100061011000F6
:10B2900061011000610110006101100061011000E6
:10B2A00061011000610110006101100061011000D6
:10B2B00061011000610110006101100061011000C6
:10B2C00061011000610110006101100061011000B6
:10B2D00061011000610110006101100061011000A6
:10B2E0006101100061011000610110006101100096
:10B2F0006101100061011000610110006101100086
:10B300006101100061011000610110006101100075
:10B310006101100061011000610110006101100065
:10B320006101100061011000610110006101100055
:10B330006101100061011000610110006101100045
:10B340006101100061011000610110006101100035
:10B350006101100061011000610110006101100025
:10B360006101100061011000610110006101100015
:10B370009D90071000000000000000000000000089
:10B3800000000000000000000000000000000000BD
:10B3900000000000000000000000000000000000AD
:10B3A00000000000000000009D9007100000000059
:10B3B000000000000000000000000000000000008D
:10B3C000000000000000000000000000000000007D
:10B3D000000000009D900710000000000000000029
:10B3E000000000000000000000000000000000005D
:10B3F000000000000000000000000000000000004D
:10B40000000000000000000000000000FFFF00003E
:10B41000005A6202323031392F30362F3037203126
:10B42000323A30393A303320474D54202B30373AB6
:10B430003030006D74373639375F68646B005344C1
:10B440004B5F56342E372E31000000000000000004
:10B4500050B1071070B1071090B107100000000044
:10B4600000000000000000000000000014B1071000
:10B4700000000000000000000000000000000000CC
:10B4800000000000000000000000000000000000BC
:10B4900000000000000000000000000000000000AC
:10B4A0000000000000000000000000009C020020DE
:10B4B000EFF3108072B6704780F310887047000079
:10B4C000064B82B01A680192019A22F4C04201929E
:10B4D000019A0192019A1A6002B07047B481008308
:10B4E00038B510F01F0504460FD1FFF7E1FF084BF8
:10B4F00024F01F045C605A6842F005025A60BFF3F2
:10B500006F8FFFF7D9FF284600E0F92040B238BD21
:10B510000000530170B545180143CB06044610D115
:10B52000FFF7C6FF0646AC4204D22046FFF7D8FF1D
:10B530002034F8E7BFF36F8F3046FFF7BDFF0020E0
:10B5400000E0F92040B270BD08B5FFF7B1FF0B4B2A
:10B550005A6822F01E025A605A6842F013025A607A
:10B560005A6822F01E025A605A6842F003025A607A
:10B57000BFF36F8FFFF7A0FF002008BD000053014D
:10B5800038B510F01F0504460FD1FFF791FF084BA7
:10B5900024F01F045C605A6842F015025A60BFF341
:10B5A0006F8FFFF789FF284600E0F92040B238BDD1
:10B5B0000000530170B545180143CB06044610D175
:10B5C000FFF776FF0646AC4204D22046FFF7D8FFCD
:10B5D0002034F8E7BFF36F8F3046FFF76DFF002090
:10B5E00000E0F92040B270BD08B5FFF761FF074BDE
:10B5F0005A6822F01E025A605A6842F013025A60DA
:10B60000BFF36F8FFFF758FF002008BD0000530104
:10B6100008B5104A5068103800F0FF005F2816D8AF
:10B6200040B20D4B53F8301031B90C480C4ACC21C4
:10B6300000F01AF8FC200BE0516803EBC002C1F3E4
:10B640008051516053F830309847002000E0FD20D1
:10B6500040B208BD00ED00E01C0300203CB0071024
:10B6600046B007100000000001B40248844601BC47
:08B67000604700BF7D9B07103D
:04000005100790014F
:00000001FF
